{
  "_format": "hh-sol-artifact-1",
  "contractName": "Tracking",
  "sourceName": "contracts/Tracking.sol",
  "abi": [
    {
      "inputs": [],
      "stateMutability": "nonpayable",
      "type": "constructor"
    },
    {
      "anonymous": false,
      "inputs": [
        {
          "indexed": true,
          "internalType": "address",
          "name": "sender",
          "type": "address"
        },
        {
          "indexed": true,
          "internalType": "address",
          "name": "receiver",
          "type": "address"
        },
        {
          "indexed": false,
          "internalType": "uint256",
          "name": "pickupTime",
          "type": "uint256"
        },
        {
          "indexed": false,
          "internalType": "uint256",
          "name": "distance",
          "type": "uint256"
        },
        {
          "indexed": false,
          "internalType": "uint256",
          "name": "price",
          "type": "uint256"
        }
      ],
      "name": "ShipmentCreated",
      "type": "event"
    },
    {
      "anonymous": false,
      "inputs": [
        {
          "indexed": true,
          "internalType": "address",
          "name": "sender",
          "type": "address"
        },
        {
          "indexed": true,
          "internalType": "address",
          "name": "receiver",
          "type": "address"
        },
        {
          "indexed": false,
          "internalType": "uint256",
          "name": "deliveryTime",
          "type": "uint256"
        }
      ],
      "name": "ShipmentDelivered",
      "type": "event"
    },
    {
      "anonymous": false,
      "inputs": [
        {
          "indexed": true,
          "internalType": "address",
          "name": "sender",
          "type": "address"
        },
        {
          "indexed": true,
          "internalType": "address",
          "name": "receiver",
          "type": "address"
        },
        {
          "indexed": false,
          "internalType": "uint256",
          "name": "pickupTime",
          "type": "uint256"
        }
      ],
      "name": "ShipmentInTransit",
      "type": "event"
    },
    {
      "anonymous": false,
      "inputs": [
        {
          "indexed": true,
          "internalType": "address",
          "name": "sender",
          "type": "address"
        },
        {
          "indexed": true,
          "internalType": "address",
          "name": "receiver",
          "type": "address"
        },
        {
          "indexed": false,
          "internalType": "uint256",
          "name": "amount",
          "type": "uint256"
        }
      ],
      "name": "ShipmentPaid",
      "type": "event"
    },
    {
      "inputs": [
        {
          "internalType": "address",
          "name": "_sender",
          "type": "address"
        },
        {
          "internalType": "address",
          "name": "_receiver",
          "type": "address"
        },
        {
          "internalType": "uint256",
          "name": "_index",
          "type": "uint256"
        }
      ],
      "name": "completeShipment",
      "outputs": [],
      "stateMutability": "nonpayable",
      "type": "function"
    },
    {
      "inputs": [
        {
          "internalType": "address",
          "name": "_receiver",
          "type": "address"
        },
        {
          "internalType": "uint256",
          "name": "_pickupTime",
          "type": "uint256"
        },
        {
          "internalType": "uint256",
          "name": "_distance",
          "type": "uint256"
        },
        {
          "internalType": "uint256",
          "name": "_price",
          "type": "uint256"
        }
      ],
      "name": "createShipment",
      "outputs": [],
      "stateMutability": "payable",
      "type": "function"
    },
    {
      "inputs": [],
      "name": "getAllTransactions",
      "outputs": [
        {
          "components": [
            {
              "internalType": "address",
              "name": "sender",
              "type": "address"
            },
            {
              "internalType": "address",
              "name": "receiver",
              "type": "address"
            },
            {
              "internalType": "uint256",
              "name": "pickupTime",
              "type": "uint256"
            },
            {
              "internalType": "uint256",
              "name": "deliveryTime",
              "type": "uint256"
            },
            {
              "internalType": "uint256",
              "name": "distance",
              "type": "uint256"
            },
            {
              "internalType": "uint256",
              "name": "price",
              "type": "uint256"
            },
            {
              "internalType": "enum Tracking.ShipmentStatus",
              "name": "status",
              "type": "uint8"
            },
            {
              "internalType": "bool",
              "name": "isPaid",
              "type": "bool"
            }
          ],
          "internalType": "struct Tracking.TypeShipment[]",
          "name": "",
          "type": "tuple[]"
        }
      ],
      "stateMutability": "view",
      "type": "function"
    },
    {
      "inputs": [
        {
          "internalType": "address",
          "name": "sender",
          "type": "address"
        },
        {
          "internalType": "uint256",
          "name": "_index",
          "type": "uint256"
        }
      ],
      "name": "getShipment",
      "outputs": [
        {
          "internalType": "address",
          "name": "",
          "type": "address"
        },
        {
          "internalType": "address",
          "name": "",
          "type": "address"
        },
        {
          "internalType": "uint256",
          "name": "",
          "type": "uint256"
        },
        {
          "internalType": "uint256",
          "name": "",
          "type": "uint256"
        },
        {
          "internalType": "uint256",
          "name": "",
          "type": "uint256"
        },
        {
          "internalType": "uint256",
          "name": "",
          "type": "uint256"
        },
        {
          "internalType": "enum Tracking.ShipmentStatus",
          "name": "",
          "type": "uint8"
        },
        {
          "internalType": "bool",
          "name": "",
          "type": "bool"
        }
      ],
      "stateMutability": "view",
      "type": "function"
    },
    {
      "inputs": [
        {
          "internalType": "address",
          "name": "_sender",
          "type": "address"
        }
      ],
      "name": "getShipmentCount",
      "outputs": [
        {
          "internalType": "uint256",
          "name": "",
          "type": "uint256"
        }
      ],
      "stateMutability": "view",
      "type": "function"
    },
    {
      "inputs": [],
      "name": "shipmentCount",
      "outputs": [
        {
          "internalType": "uint256",
          "name": "",
          "type": "uint256"
        }
      ],
      "stateMutability": "view",
      "type": "function"
    },
    {
      "inputs": [
        {
          "internalType": "address",
          "name": "",
          "type": "address"
        },
        {
          "internalType": "uint256",
          "name": "",
          "type": "uint256"
        }
      ],
      "name": "shipments",
      "outputs": [
        {
          "internalType": "address",
          "name": "sender",
          "type": "address"
        },
        {
          "internalType": "address",
          "name": "receiver",
          "type": "address"
        },
        {
          "internalType": "uint256",
          "name": "pickupTime",
          "type": "uint256"
        },
        {
          "internalType": "uint256",
          "name": "deliveryTime",
          "type": "uint256"
        },
        {
          "internalType": "uint256",
          "name": "distance",
          "type": "uint256"
        },
        {
          "internalType": "uint256",
          "name": "price",
          "type": "uint256"
        },
        {
          "internalType": "enum Tracking.ShipmentStatus",
          "name": "status",
          "type": "uint8"
        },
        {
          "internalType": "bool",
          "name": "isPaid",
          "type": "bool"
        }
      ],
      "stateMutability": "view",
      "type": "function"
    },
    {
      "inputs": [
        {
          "internalType": "address",
          "name": "_sender",
          "type": "address"
        },
        {
          "internalType": "address",
          "name": "_receiver",
          "type": "address"
        },
        {
          "internalType": "uint256",
          "name": "_index",
          "type": "uint256"
        }
      ],
      "name": "startShipment",
      "outputs": [],
      "stateMutability": "nonpayable",
      "type": "function"
    },
    {
      "inputs": [
        {
          "internalType": "uint256",
          "name": "",
          "type": "uint256"
        }
      ],
      "name": "typeshipments",
      "outputs": [
        {
          "internalType": "address",
          "name": "sender",
          "type": "address"
        },
        {
          "internalType": "address",
          "name": "receiver",
          "type": "address"
        },
        {
          "internalType": "uint256",
          "name": "pickupTime",
          "type": "uint256"
        },
        {
          "internalType": "uint256",
          "name": "deliveryTime",
          "type": "uint256"
        },
        {
          "internalType": "uint256",
          "name": "distance",
          "type": "uint256"
        },
        {
          "internalType": "uint256",
          "name": "price",
          "type": "uint256"
        },
        {
          "internalType": "enum Tracking.ShipmentStatus",
          "name": "status",
          "type": "uint8"
        },
        {
          "internalType": "bool",
          "name": "isPaid",
          "type": "bool"
        }
      ],
      "stateMutability": "view",
      "type": "function"
    }
  ],
  "bytecode": "0x608060405234801561001057600080fd5b506000600181905550611ad1806100286000396000f3fe6080604052600436106100865760003560e01c80637ff5265d116100595780637ff5265d146101675780638365da5414610190578063aace20b7146101d4578063b7dfd93d146101ff578063cbc4b1811461023c57610086565b8063179a878c1461008b57806327506f53146100b45780635667e02f146100df5780636b0f23e714610123575b600080fd5b34801561009757600080fd5b506100b260048036038101906100ad91906112d7565b610258565b005b3480156100c057600080fd5b506100c9610640565b6040516100d6919061152c565b60405180910390f35b3480156100eb57600080fd5b506101066004803603810190610101919061154e565b6107ca565b60405161011a9897969594939291906115ca565b60405180910390f35b34801561012f57600080fd5b5061014a60048036038101906101459190611648565b610889565b60405161015e9897969594939291906115ca565b60405180910390f35b34801561017357600080fd5b5061018e600480360381019061018991906112d7565b61093b565b005b34801561019c57600080fd5b506101b760048036038101906101b2919061154e565b610b97565b6040516101cb9897969594939291906115ca565b60405180910390f35b3480156101e057600080fd5b506101e9610d81565b6040516101f69190611675565b60405180910390f35b34801561020b57600080fd5b5061022660048036038101906102219190611690565b610d87565b6040516102339190611675565b60405180910390f35b610256600480360381019061025191906116bd565b610dd2565b005b60008060008573ffffffffffffffffffffffffffffffffffffffff1673ffffffffffffffffffffffffffffffffffffffff16815260200190815260200160002082815481106102aa576102a9611724565b5b906000526020600020906007020190506000600283815481106102d0576102cf611724565b5b906000526020600020906007020190508373ffffffffffffffffffffffffffffffffffffffff168260010160009054906101000a900473ffffffffffffffffffffffffffffffffffffffff1673ffffffffffffffffffffffffffffffffffffffff1614610372576040517f08c379a0000000000000000000000000000000000000000000000000000000008152600401610369906117b0565b60405180910390fd5b8160060160019054906101000a900460ff16156103c4576040517f08c379a00000000000000000000000000000000000000000000000000000000081526004016103bb9061181c565b60405180910390fd5b600160028111156103d8576103d7611374565b5b8260060160009054906101000a900460ff1660028111156103fc576103fb611374565b5b1461043c576040517f08c379a000000000000000000000000000000000000000000000000000000000815260040161043390611888565b60405180910390fd5b60008260050154905060028081111561045857610457611374565b5b8360060160009054906101000a900460ff16600281111561047c5761047b611374565b5b505060028081111561049157610490611374565b5b8260060160009054906101000a900460ff1660028111156104b5576104b4611374565b5b50504283600301819055504282600301819055508260000160009054906101000a900473ffffffffffffffffffffffffffffffffffffffff1673ffffffffffffffffffffffffffffffffffffffff166108fc829081150290604051600060405180830381858888f19350505050158015610533573d6000803e3d6000fd5b5060018360060160016101000a81548160ff02191690831515021790555060018260060160016101000a81548160ff0219169083151502179055508473ffffffffffffffffffffffffffffffffffffffff168673ffffffffffffffffffffffffffffffffffffffff167f3746ccceb54f44c9b0ee0120e596168d07ec9f6ca303cfdd9810d3b2e2686a2e426040516105cb9190611675565b60405180910390a38473ffffffffffffffffffffffffffffffffffffffff168673ffffffffffffffffffffffffffffffffffffffff167f2b6f2473aebafaf8d0889669490135928ec4454d2e29a103fd39693bbca6aef1836040516106309190611675565b60405180910390a3505050505050565b60606002805480602002602001604051908101604052809291908181526020016000905b828210156107c15783829060005260206000209060070201604051806101000160405290816000820160009054906101000a900473ffffffffffffffffffffffffffffffffffffffff1673ffffffffffffffffffffffffffffffffffffffff1673ffffffffffffffffffffffffffffffffffffffff1681526020016001820160009054906101000a900473ffffffffffffffffffffffffffffffffffffffff1673ffffffffffffffffffffffffffffffffffffffff1673ffffffffffffffffffffffffffffffffffffffff168152602001600282015481526020016003820154815260200160048201548152602001600582015481526020016006820160009054906101000a900460ff16600281111561078157610780611374565b5b600281111561079357610792611374565b5b81526020016006820160019054906101000a900460ff16151515158152505081526020019060010190610664565b50505050905090565b600060205281600052604060002081815481106107e657600080fd5b9060005260206000209060070201600091509150508060000160009054906101000a900473ffffffffffffffffffffffffffffffffffffffff16908060010160009054906101000a900473ffffffffffffffffffffffffffffffffffffffff16908060020154908060030154908060040154908060050154908060060160009054906101000a900460ff16908060060160019054906101000a900460ff16905088565b6002818154811061089957600080fd5b90600052602060002090600702016000915090508060000160009054906101000a900473ffffffffffffffffffffffffffffffffffffffff16908060010160009054906101000a900473ffffffffffffffffffffffffffffffffffffffff16908060020154908060030154908060040154908060050154908060060160009054906101000a900460ff16908060060160019054906101000a900460ff16905088565b60008060008573ffffffffffffffffffffffffffffffffffffffff1673ffffffffffffffffffffffffffffffffffffffff168152602001908152602001600020828154811061098d5761098c611724565b5b906000526020600020906007020190506000600283815481106109b3576109b2611724565b5b906000526020600020906007020190508373ffffffffffffffffffffffffffffffffffffffff168260010160009054906101000a900473ffffffffffffffffffffffffffffffffffffffff1673ffffffffffffffffffffffffffffffffffffffff1614610a55576040517f08c379a0000000000000000000000000000000000000000000000000000000008152600401610a4c906118f4565b60405180910390fd5b60006002811115610a6957610a68611374565b5b8260060160009054906101000a900460ff166002811115610a8d57610a8c611374565b5b14610acd576040517f08c379a0000000000000000000000000000000000000000000000000000000008152600401610ac490611960565b60405180910390fd5b60018260060160006101000a81548160ff02191690836002811115610af557610af4611374565b5b021790555060018160060160006101000a81548160ff02191690836002811115610b2257610b21611374565b5b02179055508373ffffffffffffffffffffffffffffffffffffffff168573ffffffffffffffffffffffffffffffffffffffff167faafab9f94340179ff9cefd29621e1772a4b8efab8023163838f1b0a8f6ce5df58460020154604051610b889190611675565b60405180910390a35050505050565b60008060008060008060008060008060008c73ffffffffffffffffffffffffffffffffffffffff1673ffffffffffffffffffffffffffffffffffffffff1681526020019081526020016000208a81548110610bf557610bf4611724565b5b9060005260206000209060070201604051806101000160405290816000820160009054906101000a900473ffffffffffffffffffffffffffffffffffffffff1673ffffffffffffffffffffffffffffffffffffffff1673ffffffffffffffffffffffffffffffffffffffff1681526020016001820160009054906101000a900473ffffffffffffffffffffffffffffffffffffffff1673ffffffffffffffffffffffffffffffffffffffff1673ffffffffffffffffffffffffffffffffffffffff168152602001600282015481526020016003820154815260200160048201548152602001600582015481526020016006820160009054906101000a900460ff166002811115610d0857610d07611374565b5b6002811115610d1a57610d19611374565b5b81526020016006820160019054906101000a900460ff1615151515815250509050806000015181602001518260400151836060015184608001518560a001518660c001518760e0015198509850985098509850985098509850509295985092959890939650565b60015481565b60008060008373ffffffffffffffffffffffffffffffffffffffff1673ffffffffffffffffffffffffffffffffffffffff168152602001908152602001600020805490509050919050565b80341015610e15576040517f08c379a0000000000000000000000000000000000000000000000000000000008152600401610e0c906119cc565b60405180910390fd5b60006040518061010001604052803373ffffffffffffffffffffffffffffffffffffffff1681526020018673ffffffffffffffffffffffffffffffffffffffff1681526020018581526020016000815260200184815260200183815260200160006002811115610e8857610e87611374565b5b81526020016000151581525090506000803373ffffffffffffffffffffffffffffffffffffffff1673ffffffffffffffffffffffffffffffffffffffff16815260200190815260200160002081908060018154018082558091505060019003906000526020600020906007020160009091909190915060008201518160000160006101000a81548173ffffffffffffffffffffffffffffffffffffffff021916908373ffffffffffffffffffffffffffffffffffffffff16021790555060208201518160010160006101000a81548173ffffffffffffffffffffffffffffffffffffffff021916908373ffffffffffffffffffffffffffffffffffffffff16021790555060408201518160020155606082015181600301556080820151816004015560a0820151816005015560c08201518160060160006101000a81548160ff02191690836002811115610fdf57610fde611374565b5b021790555060e08201518160060160016101000a81548160ff02191690831515021790555050506001600081548092919061101990611a1b565b919050555060026040518061010001604052803373ffffffffffffffffffffffffffffffffffffffff1681526020018773ffffffffffffffffffffffffffffffffffffffff168152602001868152602001600081526020018581526020018481526020016000600281111561109157611090611374565b5b815260200160001515815250908060018154018082558091505060019003906000526020600020906007020160009091909190915060008201518160000160006101000a81548173ffffffffffffffffffffffffffffffffffffffff021916908373ffffffffffffffffffffffffffffffffffffffff16021790555060208201518160010160006101000a81548173ffffffffffffffffffffffffffffffffffffffff021916908373ffffffffffffffffffffffffffffffffffffffff16021790555060408201518160020155606082015181600301556080820151816004015560a0820151816005015560c08201518160060160006101000a81548160ff021916908360028111156111a7576111a6611374565b5b021790555060e08201518160060160016101000a81548160ff02191690831515021790555050508473ffffffffffffffffffffffffffffffffffffffff163373ffffffffffffffffffffffffffffffffffffffff167f5001b34ecf2db5b7bbeddcbbe761ec9ecadcc7638018b98ce3e24995b0e946b686868660405161122f93929190611a64565b60405180910390a35050505050565b600080fd5b600073ffffffffffffffffffffffffffffffffffffffff82169050919050565b600061126e82611243565b9050919050565b61127e81611263565b811461128957600080fd5b50565b60008135905061129b81611275565b92915050565b6000819050919050565b6112b4816112a1565b81146112bf57600080fd5b50565b6000813590506112d1816112ab565b92915050565b6000806000606084860312156112f0576112ef61123e565b5b60006112fe8682870161128c565b935050602061130f8682870161128c565b9250506040611320868287016112c2565b9150509250925092565b600081519050919050565b600082825260208201905092915050565b6000819050602082019050919050565b61135f81611263565b82525050565b61136e816112a1565b82525050565b7f4e487b7100000000000000000000000000000000000000000000000000000000600052602160045260246000fd5b600381106113b4576113b3611374565b5b50565b60008190506113c5826113a3565b919050565b60006113d5826113b7565b9050919050565b6113e5816113ca565b82525050565b60008115159050919050565b611400816113eb565b82525050565b6101008201600082015161141d6000850182611356565b5060208201516114306020850182611356565b5060408201516114436040850182611365565b5060608201516114566060850182611365565b5060808201516114696080850182611365565b5060a082015161147c60a0850182611365565b5060c082015161148f60c08501826113dc565b5060e08201516114a260e08501826113f7565b50505050565b60006114b48383611406565b6101008301905092915050565b6000602082019050919050565b60006114d98261132a565b6114e38185611335565b93506114ee83611346565b8060005b8381101561151f57815161150688826114a8565b9750611511836114c1565b9250506001810190506114f2565b5085935050505092915050565b6000602082019050818103600083015261154681846114ce565b905092915050565b600080604083850312156115655761156461123e565b5b60006115738582860161128c565b9250506020611584858286016112c2565b9150509250929050565b61159781611263565b82525050565b6115a6816112a1565b82525050565b6115b5816113ca565b82525050565b6115c4816113eb565b82525050565b6000610100820190506115e0600083018b61158e565b6115ed602083018a61158e565b6115fa604083018961159d565b611607606083018861159d565b611614608083018761159d565b61162160a083018661159d565b61162e60c08301856115ac565b61163b60e08301846115bb565b9998505050505050505050565b60006020828403121561165e5761165d61123e565b5b600061166c848285016112c2565b91505092915050565b600060208201905061168a600083018461159d565b92915050565b6000602082840312156116a6576116a561123e565b5b60006116b48482850161128c565b91505092915050565b600080600080608085870312156116d7576116d661123e565b5b60006116e58782880161128c565b94505060206116f6878288016112c2565b9350506040611707878288016112c2565b9250506060611718878288016112c2565b91505092959194509250565b7f4e487b7100000000000000000000000000000000000000000000000000000000600052603260045260246000fd5b600082825260208201905092915050565b7f496e76616c696420726563656976657200000000000000000000000000000000600082015250565b600061179a601083611753565b91506117a582611764565b602082019050919050565b600060208201905081810360008301526117c98161178d565b9050919050565b7f616c726561642070616964000000000000000000000000000000000000000000600082015250565b6000611806600b83611753565b9150611811826117d0565b602082019050919050565b60006020820190508181036000830152611835816117f9565b9050919050565b7f736869706d656e7420616c72656164792064656c697665726564000000000000600082015250565b6000611872601a83611753565b915061187d8261183c565b602082019050919050565b600060208201905081810360008301526118a181611865565b9050919050565b7f696e636f72726563742072656365697665720000000000000000000000000000600082015250565b60006118de601283611753565b91506118e9826118a8565b602082019050919050565b6000602082019050818103600083015261190d816118d1565b9050919050565b7f736869706d656e7420616c726561647920696e207472616e736974696f6e0000600082015250565b600061194a601e83611753565b915061195582611914565b602082019050919050565b600060208201905081810360008301526119798161193d565b9050919050565b7f496e73757266696369656e7420616d6f756e7400000000000000000000000000600082015250565b60006119b6601383611753565b91506119c182611980565b602082019050919050565b600060208201905081810360008301526119e5816119a9565b9050919050565b7f4e487b7100000000000000000000000000000000000000000000000000000000600052601160045260246000fd5b6000611a26826112a1565b91507fffffffffffffffffffffffffffffffffffffffffffffffffffffffffffffffff821415611a5957611a586119ec565b5b600182019050919050565b6000606082019050611a79600083018661159d565b611a86602083018561159d565b611a93604083018461159d565b94935050505056fea2646970667358221220ae1b0a5b48970e3ecf7f5be35738ed7013b2dae61a452543270af304822c9e6164736f6c63430008090033",
  "linkReferences": {},
  "deployedLinkReferences": {}
}